:030000000202F702
:0C02F700787FE4F6D8FD75817502033EA7
:10040000434D443D55500D0A00434D443D444F5724
:100410004E0D0A00434D443D53544F500D0A004DBC
:100420004F44453D30310D0A004D4F44453D30327B
:100430000D0A004D4F44453D30330D0A004D4F44E9
:10044000453D30340D0A004D4F44453D30350D0AD1
:0104500000AB
:0C0519000308000000010D00020B0001AF
:090451008B806303FF7F327E0003
:10045A00D3EF9400EE9400400F7D267C82DCFEDD13
:08046A00FAEF1F70EB1E80E8A1
:010472002267
:1004A500758920758DFD759850D28EC299C298D2E6
:0404B500ACD2AF22F4
:0F04EC00E4F50BF50C7580FFE50C450B60F7226E
:0F04FB00E4F50BF50C758055E50C450B60F72209
:0F050A00E4F50BF50CE4F580E50C450B60F722EA
:100003007BFEE4F50BF50C8B80EB25E0FB70027BAC
:0B001300FE120456E50C450B60ED22C8
:100473007B01E4F50BF50C8B80EB25E0FB70027B35
:0B04830001120456E50C450B60ED2251
:1004B9007B0FE4F50BF50C120451E50C450B60F7C5
:0104C9002210
:1004CA007B55E4F50BF50C120451E50C450B60F76E
:0104DA0022FF
:1004DB007B33E4F50BF50C120451E50C450B60F77F
:0104EB0022EE
:1001F3008B738A748975750B00750C01A801AC02A9
:10020300AD037BFF7A0479001201AAEF700C750825
:10021300FF750904750AEC0202E8A875AC74AD73A6
:100223007BFF7A0479091201AAEF700C7508FF7538
:100233000904750AFB0202E8A875AC74AD737BFF71
:100243007A0479141201AAEF700C7508FF75090579
:10025300750A0A0202E8A875AC74AD737BFF7A04D1
:10026300791F1201AAEF700B7508FF750900750A53
:10027300038072A875AC74AD737BFF7A047929127D
:1002830001AAEF700B7508FF750904750A73805591
:10029300A875AC74AD737BFF7A0479331201AAEFAE
:1002A300700B7508FF750904750AB98038A875AC19
:1002B30074AD737BFF7A04793D1201AAEF700B755D
:1002C30008FF750904750ACA801BA875AC74AD7361
:1002D3007BFF7A0479471201AAEF70097508FF754D
:1002E3000904750ADB7E007F647D007B007A007958
:0402F3000E0201C72F
:080526008F993099FDC2992262
:0300230002038352
:10038300C0E0C0F0C083C082C0D075D000C000C040
:1003930001C002C003C004C005C006C007309842B4
:1003A300859972C298AF0D050D740E2FF8A672E5EC
:1003B30072640A7023E50DD39401401C740C250D5F
:1003C300F8E6B40D13740E250DF876007B007A0061
:1003D300790E1201F3750D00E50DC39463400375A7
:0203E3000D000B
:1003E500D007D006D005D004D003D002D001D0006C
:0B03F500D0D0D082D083D0F0D0E03216
:10048E001204A5C2B77508FF750905750A0AAA09EF
:07049E00A90A12002680F7F5
:1003030002048EE493A3F8E493A34003F68001F27E
:1003130008DFF48029E493A3F85407240CC8C333FB
:10032300C4540F4420C8834004F456800146F6DFCA
:10033300E4800B0102040810204080900519E47E3C
:10034300019360BCA3FF543F30E509541FFEE493BF
:10035300A360010ECF54C025E060A840B8E493A386
:10036300FAE493A3F8E493A3C8C582C8CAC583CAB1
:10037300F0A3C8C582C8CAC583CADFE9DEE780BE69
:0105250000D5
:060026008A838982E47365
:10002C00E3F5F009E208B5F06D606B80F3E3F5F0F1
:10003C0009E608B5F060605E80F387F009E608B564
:10004C00F054605280F487F009E208B5F04860463D
:10005C0080F488828C8387F009E0A3B5F038603691
:10006C0080F488828C8387F009E493A3B5F0276031
:10007C002580F388828C83E3F5F009E0A3B5F016B4
:10008C00601480F388828C83E3F5F009E493A3B5C4
:10009C00F004600280F2020157808580E7808E8038
:1000AC00D2803C8015806C807E809B80B5808B805C
:1000BC00A1804F8070803A02016389828A83ECFAB6
:1000CC00E493F5F0A3C8C582C8CCC583CCE493A354
:1000DC00C8C582C8CCC583CCB5F070606E80E18990
:1000EC00828A83E493F5F0A3E208B5F05E605C804D
:1000FC00F289828A83E0F5F0A3E608B5F04D604BF7
:10010C0080F389828A83E0F5F0A3E208B5F03C60C5
:10011C003A80F389828A83E493F5F0A3E608B5F07C
:10012C002A602880F2805389828A83ECFAE493F562
:10013C00F0A3C8C582C8CCC583CCE0A3C8C582C80F
:10014C00CCC583CCB5F004600280E27FFFB5F00231
:10015C000F2240027F012289828A83ECFAE0F5F0BB
:10016C00A3C8C582C8CCC583CCE0A3C8C582C8CC03
:10017C00C583CCB5F0D560D380E389828A83ECFA51
:10018C00E0F5F0A3C8C582C8CCC583CCE493A3C862
:10019C00C582C8CCC583CCB5F0B160AF80E288F025
:1001AC00ED2402B4040050A3F582EB2402B4040045
:0B01BC00509923234582239000A57377
:1001C700EF4E6012EF60010EEDBB010B89828A834F
:1001D700F0A3DFFCDEFA2289F05007F709DFFCA95C
:0C01E700F022BBFEFCF309DFFCA9F022B3
:00000001FF
